{
  "_format": "hh-sol-artifact-1",
  "contractName": "contentManagement",
  "sourceName": "contracts/content.sol",
  "abi": [
    {
      "inputs": [
        {
          "internalType": "address",
          "name": "_tokenAddress",
          "type": "address"
        },
        {
          "internalType": "address",
          "name": "userProfileAddress",
          "type": "address"
        }
      ],
      "stateMutability": "nonpayable",
      "type": "constructor"
    },
    {
      "anonymous": false,
      "inputs": [
        {
          "indexed": true,
          "internalType": "uint256",
          "name": "contentId",
          "type": "uint256"
        },
        {
          "indexed": true,
          "internalType": "address",
          "name": "creator",
          "type": "address"
        },
        {
          "indexed": false,
          "internalType": "string",
          "name": "contentType",
          "type": "string"
        }
      ],
      "name": "ContentCreated",
      "type": "event"
    },
    {
      "anonymous": false,
      "inputs": [
        {
          "indexed": true,
          "internalType": "uint256",
          "name": "contentId",
          "type": "uint256"
        },
        {
          "indexed": true,
          "internalType": "address",
          "name": "user",
          "type": "address"
        },
        {
          "indexed": false,
          "internalType": "string",
          "name": "interactionType",
          "type": "string"
        }
      ],
      "name": "ContentInteraction",
      "type": "event"
    },
    {
      "inputs": [],
      "name": "contentCount",
      "outputs": [
        {
          "internalType": "uint256",
          "name": "",
          "type": "uint256"
        }
      ],
      "stateMutability": "view",
      "type": "function"
    },
    {
      "inputs": [
        {
          "internalType": "uint256",
          "name": "",
          "type": "uint256"
        }
      ],
      "name": "contents",
      "outputs": [
        {
          "internalType": "uint256",
          "name": "id",
          "type": "uint256"
        },
        {
          "internalType": "address",
          "name": "creator",
          "type": "address"
        },
        {
          "internalType": "string",
          "name": "contentType",
          "type": "string"
        },
        {
          "internalType": "uint256",
          "name": "likes",
          "type": "uint256"
        },
        {
          "internalType": "uint256",
          "name": "shares",
          "type": "uint256"
        },
        {
          "internalType": "uint256",
          "name": "timestamp",
          "type": "uint256"
        }
      ],
      "stateMutability": "view",
      "type": "function"
    },
    {
      "inputs": [
        {
          "internalType": "string",
          "name": "_contentType",
          "type": "string"
        }
      ],
      "name": "createContent",
      "outputs": [],
      "stateMutability": "nonpayable",
      "type": "function"
    },
    {
      "inputs": [
        {
          "internalType": "uint256",
          "name": "_contentId",
          "type": "uint256"
        }
      ],
      "name": "getContent",
      "outputs": [
        {
          "components": [
            {
              "internalType": "uint256",
              "name": "id",
              "type": "uint256"
            },
            {
              "internalType": "address",
              "name": "creator",
              "type": "address"
            },
            {
              "internalType": "string",
              "name": "contentType",
              "type": "string"
            },
            {
              "internalType": "uint256",
              "name": "likes",
              "type": "uint256"
            },
            {
              "internalType": "uint256",
              "name": "shares",
              "type": "uint256"
            },
            {
              "internalType": "uint256",
              "name": "timestamp",
              "type": "uint256"
            }
          ],
          "internalType": "struct contentManagement.Content",
          "name": "",
          "type": "tuple"
        }
      ],
      "stateMutability": "view",
      "type": "function"
    },
    {
      "inputs": [],
      "name": "getContractBalance",
      "outputs": [
        {
          "internalType": "uint256",
          "name": "",
          "type": "uint256"
        }
      ],
      "stateMutability": "view",
      "type": "function"
    },
    {
      "inputs": [
        {
          "internalType": "uint256",
          "name": "_contentId",
          "type": "uint256"
        },
        {
          "internalType": "string",
          "name": "_interactionType",
          "type": "string"
        }
      ],
      "name": "interactWithContent",
      "outputs": [],
      "stateMutability": "nonpayable",
      "type": "function"
    },
    {
      "inputs": [],
      "name": "tokenAddress",
      "outputs": [
        {
          "internalType": "contract IERC20",
          "name": "",
          "type": "address"
        }
      ],
      "stateMutability": "view",
      "type": "function"
    },
    {
      "inputs": [],
      "name": "userProfile",
      "outputs": [
        {
          "internalType": "contract UserProfile",
          "name": "",
          "type": "address"
        }
      ],
      "stateMutability": "view",
      "type": "function"
    }
  ],
  "bytecode": "0x60806040523480156200001157600080fd5b5060405162001b3c38038062001b3c83398181016040528101906200003791906200012a565b816000806101000a81548173ffffffffffffffffffffffffffffffffffffffff021916908373ffffffffffffffffffffffffffffffffffffffff16021790555080600160006101000a81548173ffffffffffffffffffffffffffffffffffffffff021916908373ffffffffffffffffffffffffffffffffffffffff160217905550505062000171565b600080fd5b600073ffffffffffffffffffffffffffffffffffffffff82169050919050565b6000620000f282620000c5565b9050919050565b6200010481620000e5565b81146200011057600080fd5b50565b6000815190506200012481620000f9565b92915050565b60008060408385031215620001445762000143620000c0565b5b6000620001548582860162000113565b9250506020620001678582860162000113565b9150509250929050565b6119bb80620001816000396000f3fe608060405234801561001057600080fd5b50600436106100885760003560e01c80639d76ea581161005b5780639d76ea5814610115578063b5ecf91214610133578063cc45969614610168578063e24f02a21461018657610088565b80630b7ad54c1461008d5780632a5de350146100bd578063497cc841146100db5780636f9fb98a146100f7575b600080fd5b6100a760048036038101906100a29190610b57565b6101a2565b6040516100b49190610ced565b60405180910390f35b6100c56102df565b6040516100d29190610d6e565b60405180910390f35b6100f560048036038101906100f09190610ebe565b610305565b005b6100ff6105e0565b60405161010c9190610f16565b60405180910390f35b61011d610682565b60405161012a9190610f52565b60405180910390f35b61014d60048036038101906101489190610b57565b6106a6565b60405161015f96959493929190610fc6565b60405180910390f35b61017061078a565b60405161017d9190610f16565b60405180910390f35b6101a0600480360381019061019b919061102e565b610790565b005b6101aa610ac1565b600260008381526020019081526020016000206040518060c0016040529081600082015481526020016001820160009054906101000a900473ffffffffffffffffffffffffffffffffffffffff1673ffffffffffffffffffffffffffffffffffffffff1673ffffffffffffffffffffffffffffffffffffffff168152602001600282018054610238906110b9565b80601f0160208091040260200160405190810160405280929190818152602001828054610264906110b9565b80156102b15780601f10610286576101008083540402835291602001916102b1565b820191906000526020600020905b81548152906001019060200180831161029457829003601f168201915b5050505050815260200160038201548152602001600482015481526020016005820154815250509050919050565b600160009054906101000a900473ffffffffffffffffffffffffffffffffffffffff1681565b600160009054906101000a900473ffffffffffffffffffffffffffffffffffffffff1673ffffffffffffffffffffffffffffffffffffffff16636f77926b336040518263ffffffff1660e01b815260040161036091906110ea565b600060405180830381865afa15801561037d573d6000803e3d6000fd5b505050506040513d6000823e3d601f19601f820116820180604052508101906103a691906112bc565b606001516103e9576040517f08c379a00000000000000000000000000000000000000000000000000000000081526004016103e090611351565b60405180910390fd5b600360008154809291906103fc906113a0565b91905055506040518060c0016040528060035481526020013373ffffffffffffffffffffffffffffffffffffffff1681526020018281526020016000815260200160008152602001428152506002600060035481526020019081526020016000206000820151816000015560208201518160010160006101000a81548173ffffffffffffffffffffffffffffffffffffffff021916908373ffffffffffffffffffffffffffffffffffffffff16021790555060408201518160020190816104c3919061158a565b50606082015181600301556080820151816004015560a082015181600501559050503373ffffffffffffffffffffffffffffffffffffffff166003547fbacf9f620fd10df5b39931f2a3012e753be545aba5d7642b9bdb59b527709f1d8360405161052e919061165c565b60405180910390a360008054906101000a900473ffffffffffffffffffffffffffffffffffffffff1673ffffffffffffffffffffffffffffffffffffffff1663a9059cbb33674563918244f400006040518363ffffffff1660e01b81526004016105999291906116b9565b6020604051808303816000875af11580156105b8573d6000803e3d6000fd5b505050506040513d601f19601f820116820180604052508101906105dc91906116e2565b5050565b60008060009054906101000a900473ffffffffffffffffffffffffffffffffffffffff1673ffffffffffffffffffffffffffffffffffffffff166370a08231306040518263ffffffff1660e01b815260040161063c91906110ea565b602060405180830381865afa158015610659573d6000803e3d6000fd5b505050506040513d601f19601f8201168201806040525081019061067d919061170f565b905090565b60008054906101000a900473ffffffffffffffffffffffffffffffffffffffff1681565b60026020528060005260406000206000915090508060000154908060010160009054906101000a900473ffffffffffffffffffffffffffffffffffffffff16908060020180546106f5906110b9565b80601f0160208091040260200160405190810160405280929190818152602001828054610721906110b9565b801561076e5780601f106107435761010080835404028352916020019161076e565b820191906000526020600020905b81548152906001019060200180831161075157829003601f168201915b5050505050908060030154908060040154908060050154905086565b60035481565b60006002600084815260200190815260200160002060000154036107e9576040517f08c379a00000000000000000000000000000000000000000000000000000000081526004016107e090611788565b60405180910390fd5b6040516020016107f8906117ff565b604051602081830303815290604052805190602001208160405160200161081f9190611845565b604051602081830303815290604052805190602001200361086b57600260008381526020019081526020016000206003016000815480929190610861906113a0565b91905055506108ea565b60405160200161087a906118a8565b60405160208183030381529060405280519060200120816040516020016108a19190611845565b60405160208183030381529060405280519060200120036108e9576002600083815260200190815260200160002060040160008154809291906108e3906113a0565b91905055505b5b3373ffffffffffffffffffffffffffffffffffffffff16827fbfa322ab5e11ecd082f90d75bbfcf01af6247c691cec87fca9bc248aab7b2e1183604051610931919061165c565b60405180910390a360008054906101000a900473ffffffffffffffffffffffffffffffffffffffff1673ffffffffffffffffffffffffffffffffffffffff1663a9059cbb33670de0b6b3a76400006040518363ffffffff1660e01b815260040161099c9291906118f8565b6020604051808303816000875af11580156109bb573d6000803e3d6000fd5b505050506040513d601f19601f820116820180604052508101906109df91906116e2565b5060008054906101000a900473ffffffffffffffffffffffffffffffffffffffff1673ffffffffffffffffffffffffffffffffffffffff1663a9059cbb6002600085815260200190815260200160002060010160009054906101000a900473ffffffffffffffffffffffffffffffffffffffff16671bc16d674ec800006040518363ffffffff1660e01b8152600401610a7992919061195c565b6020604051808303816000875af1158015610a98573d6000803e3d6000fd5b505050506040513d601f19601f82011682018060405250810190610abc91906116e2565b505050565b6040518060c0016040528060008152602001600073ffffffffffffffffffffffffffffffffffffffff168152602001606081526020016000815260200160008152602001600081525090565b6000604051905090565b600080fd5b600080fd5b6000819050919050565b610b3481610b21565b8114610b3f57600080fd5b50565b600081359050610b5181610b2b565b92915050565b600060208284031215610b6d57610b6c610b17565b5b6000610b7b84828501610b42565b91505092915050565b610b8d81610b21565b82525050565b600073ffffffffffffffffffffffffffffffffffffffff82169050919050565b6000610bbe82610b93565b9050919050565b610bce81610bb3565b82525050565b600081519050919050565b600082825260208201905092915050565b60005b83811015610c0e578082015181840152602081019050610bf3565b60008484015250505050565b6000601f19601f8301169050919050565b6000610c3682610bd4565b610c408185610bdf565b9350610c50818560208601610bf0565b610c5981610c1a565b840191505092915050565b600060c083016000830151610c7c6000860182610b84565b506020830151610c8f6020860182610bc5565b5060408301518482036040860152610ca78282610c2b565b9150506060830151610cbc6060860182610b84565b506080830151610ccf6080860182610b84565b5060a0830151610ce260a0860182610b84565b508091505092915050565b60006020820190508181036000830152610d078184610c64565b905092915050565b6000819050919050565b6000610d34610d2f610d2a84610b93565b610d0f565b610b93565b9050919050565b6000610d4682610d19565b9050919050565b6000610d5882610d3b565b9050919050565b610d6881610d4d565b82525050565b6000602082019050610d836000830184610d5f565b92915050565b600080fd5b600080fd5b7f4e487b7100000000000000000000000000000000000000000000000000000000600052604160045260246000fd5b610dcb82610c1a565b810181811067ffffffffffffffff82111715610dea57610de9610d93565b5b80604052505050565b6000610dfd610b0d565b9050610e098282610dc2565b919050565b600067ffffffffffffffff821115610e2957610e28610d93565b5b610e3282610c1a565b9050602081019050919050565b82818337600083830152505050565b6000610e61610e5c84610e0e565b610df3565b905082815260208101848484011115610e7d57610e7c610d8e565b5b610e88848285610e3f565b509392505050565b600082601f830112610ea557610ea4610d89565b5b8135610eb5848260208601610e4e565b91505092915050565b600060208284031215610ed457610ed3610b17565b5b600082013567ffffffffffffffff811115610ef257610ef1610b1c565b5b610efe84828501610e90565b91505092915050565b610f1081610b21565b82525050565b6000602082019050610f2b6000830184610f07565b92915050565b6000610f3c82610d3b565b9050919050565b610f4c81610f31565b82525050565b6000602082019050610f676000830184610f43565b92915050565b610f7681610bb3565b82525050565b600082825260208201905092915050565b6000610f9882610bd4565b610fa28185610f7c565b9350610fb2818560208601610bf0565b610fbb81610c1a565b840191505092915050565b600060c082019050610fdb6000830189610f07565b610fe86020830188610f6d565b8181036040830152610ffa8187610f8d565b90506110096060830186610f07565b6110166080830185610f07565b61102360a0830184610f07565b979650505050505050565b6000806040838503121561104557611044610b17565b5b600061105385828601610b42565b925050602083013567ffffffffffffffff81111561107457611073610b1c565b5b61108085828601610e90565b9150509250929050565b7f4e487b7100000000000000000000000000000000000000000000000000000000600052602260045260246000fd5b600060028204905060018216806110d157607f821691505b6020821081036110e4576110e361108a565b5b50919050565b60006020820190506110ff6000830184610f6d565b92915050565b600080fd5b600080fd5b61111881610bb3565b811461112357600080fd5b50565b6000815190506111358161110f565b92915050565b600061114e61114984610e0e565b610df3565b90508281526020810184848401111561116a57611169610d8e565b5b611175848285610bf0565b509392505050565b600082601f83011261119257611191610d89565b5b81516111a284826020860161113b565b91505092915050565b60008115159050919050565b6111c0816111ab565b81146111cb57600080fd5b50565b6000815190506111dd816111b7565b92915050565b6000815190506111f281610b2b565b92915050565b600060a0828403121561120e5761120d611105565b5b61121860a0610df3565b9050600061122884828501611126565b600083015250602082015167ffffffffffffffff81111561124c5761124b61110a565b5b6112588482850161117d565b602083015250604082015167ffffffffffffffff81111561127c5761127b61110a565b5b6112888482850161117d565b604083015250606061129c848285016111ce565b60608301525060806112b0848285016111e3565b60808301525092915050565b6000602082840312156112d2576112d1610b17565b5b600082015167ffffffffffffffff8111156112f0576112ef610b1c565b5b6112fc848285016111f8565b91505092915050565b7f55736572206e6f74207665726966696564000000000000000000000000000000600082015250565b600061133b601183610f7c565b915061134682611305565b602082019050919050565b6000602082019050818103600083015261136a8161132e565b9050919050565b7f4e487b7100000000000000000000000000000000000000000000000000000000600052601160045260246000fd5b60006113ab82610b21565b91507fffffffffffffffffffffffffffffffffffffffffffffffffffffffffffffffff82036113dd576113dc611371565b5b600182019050919050565b60008190508160005260206000209050919050565b60006020601f8301049050919050565b600082821b905092915050565b60006008830261144a7fffffffffffffffffffffffffffffffffffffffffffffffffffffffffffffffff8261140d565b611454868361140d565b95508019841693508086168417925050509392505050565b600061148761148261147d84610b21565b610d0f565b610b21565b9050919050565b6000819050919050565b6114a18361146c565b6114b56114ad8261148e565b84845461141a565b825550505050565b600090565b6114ca6114bd565b6114d5818484611498565b505050565b5b818110156114f9576114ee6000826114c2565b6001810190506114db565b5050565b601f82111561153e5761150f816113e8565b611518846113fd565b81016020851015611527578190505b61153b611533856113fd565b8301826114da565b50505b505050565b600082821c905092915050565b600061156160001984600802611543565b1980831691505092915050565b600061157a8383611550565b9150826002028217905092915050565b61159382610bd4565b67ffffffffffffffff8111156115ac576115ab610d93565b5b6115b682546110b9565b6115c18282856114fd565b600060209050601f8311600181146115f457600084156115e2578287015190505b6115ec858261156e565b865550611654565b601f198416611602866113e8565b60005b8281101561162a57848901518255600182019150602085019450602081019050611605565b868310156116475784890151611643601f891682611550565b8355505b6001600288020188555050505b505050505050565b600060208201905081810360008301526116768184610f8d565b905092915050565b6000819050919050565b60006116a361169e6116998461167e565b610d0f565b610b21565b9050919050565b6116b381611688565b82525050565b60006040820190506116ce6000830185610f6d565b6116db60208301846116aa565b9392505050565b6000602082840312156116f8576116f7610b17565b5b6000611706848285016111ce565b91505092915050565b60006020828403121561172557611724610b17565b5b6000611733848285016111e3565b91505092915050565b7f436f6e74656e7420646f6573206e6f7420657869737400000000000000000000600082015250565b6000611772601683610f7c565b915061177d8261173c565b602082019050919050565b600060208201905081810360008301526117a181611765565b9050919050565b600081905092915050565b7f6c696b6500000000000000000000000000000000000000000000000000000000600082015250565b60006117e96004836117a8565b91506117f4826117b3565b600482019050919050565b600061180a826117dc565b9150819050919050565b600061181f82610bd4565b61182981856117a8565b9350611839818560208601610bf0565b80840191505092915050565b60006118518284611814565b915081905092915050565b7f7368617265000000000000000000000000000000000000000000000000000000600082015250565b60006118926005836117a8565b915061189d8261185c565b600582019050919050565b60006118b382611885565b9150819050919050565b6000819050919050565b60006118e26118dd6118d8846118bd565b610d0f565b610b21565b9050919050565b6118f2816118c7565b82525050565b600060408201905061190d6000830185610f6d565b61191a60208301846118e9565b9392505050565b6000819050919050565b600061194661194161193c84611921565b610d0f565b610b21565b9050919050565b6119568161192b565b82525050565b60006040820190506119716000830185610f6d565b61197e602083018461194d565b939250505056fea2646970667358221220936e8799a80b2b54183abf07cc084c9fb069ee9d10e63a5da6d4d43a7116131564736f6c63430008180033",
  "linkReferences": {},
  "deployedLinkReferences": {}
}