{
  "_format": "hh-sol-artifact-1",
  "contractName": "UserProfile",
  "sourceName": "contracts/userProfile.sol",
  "abi": [
    {
      "inputs": [
        {
          "internalType": "address",
          "name": "_tokenAddress",
          "type": "address"
        }
      ],
      "stateMutability": "nonpayable",
      "type": "constructor"
    },
    {
      "anonymous": false,
      "inputs": [
        {
          "indexed": true,
          "internalType": "address",
          "name": "userAddress",
          "type": "address"
        },
        {
          "indexed": false,
          "internalType": "string",
          "name": "username",
          "type": "string"
        },
        {
          "indexed": false,
          "internalType": "string",
          "name": "bio",
          "type": "string"
        }
      ],
      "name": "ProfileUpdated",
      "type": "event"
    },
    {
      "anonymous": false,
      "inputs": [
        {
          "indexed": true,
          "internalType": "address",
          "name": "user",
          "type": "address"
        },
        {
          "indexed": true,
          "internalType": "string",
          "name": "_username",
          "type": "string"
        }
      ],
      "name": "UserCreated",
      "type": "event"
    },
    {
      "anonymous": false,
      "inputs": [
        {
          "indexed": true,
          "internalType": "address",
          "name": "_userAddress",
          "type": "address"
        }
      ],
      "name": "UserVerified",
      "type": "event"
    },
    {
      "inputs": [
        {
          "internalType": "string",
          "name": "_username",
          "type": "string"
        },
        {
          "internalType": "string",
          "name": "_bio",
          "type": "string"
        }
      ],
      "name": "createAccount",
      "outputs": [],
      "stateMutability": "nonpayable",
      "type": "function"
    },
    {
      "inputs": [],
      "name": "getBalance",
      "outputs": [
        {
          "internalType": "uint256",
          "name": "",
          "type": "uint256"
        }
      ],
      "stateMutability": "view",
      "type": "function"
    },
    {
      "inputs": [],
      "name": "getContractBalance",
      "outputs": [
        {
          "internalType": "uint256",
          "name": "",
          "type": "uint256"
        }
      ],
      "stateMutability": "view",
      "type": "function"
    },
    {
      "inputs": [
        {
          "internalType": "address",
          "name": "_userAddress",
          "type": "address"
        }
      ],
      "name": "getUser",
      "outputs": [
        {
          "components": [
            {
              "internalType": "address",
              "name": "walletAddress",
              "type": "address"
            },
            {
              "internalType": "string",
              "name": "username",
              "type": "string"
            },
            {
              "internalType": "string",
              "name": "bio",
              "type": "string"
            },
            {
              "internalType": "bool",
              "name": "isVerified",
              "type": "bool"
            },
            {
              "internalType": "uint256",
              "name": "reputation",
              "type": "uint256"
            }
          ],
          "internalType": "struct UserProfile.User",
          "name": "",
          "type": "tuple"
        }
      ],
      "stateMutability": "view",
      "type": "function"
    },
    {
      "inputs": [],
      "name": "owner",
      "outputs": [
        {
          "internalType": "address",
          "name": "",
          "type": "address"
        }
      ],
      "stateMutability": "view",
      "type": "function"
    },
    {
      "inputs": [],
      "name": "tokenAddress",
      "outputs": [
        {
          "internalType": "contract IERC20",
          "name": "",
          "type": "address"
        }
      ],
      "stateMutability": "view",
      "type": "function"
    },
    {
      "inputs": [
        {
          "internalType": "string",
          "name": "_username",
          "type": "string"
        },
        {
          "internalType": "string",
          "name": "_bio",
          "type": "string"
        }
      ],
      "name": "updateProfile",
      "outputs": [],
      "stateMutability": "nonpayable",
      "type": "function"
    },
    {
      "inputs": [
        {
          "internalType": "address",
          "name": "_userAddress",
          "type": "address"
        }
      ],
      "name": "verifyUser",
      "outputs": [],
      "stateMutability": "nonpayable",
      "type": "function"
    }
  ],
  "bytecode": "0x60806040523480156200001157600080fd5b5060405162001c1738038062001c17833981810160405281019062000037919062000129565b806000806101000a81548173ffffffffffffffffffffffffffffffffffffffff021916908373ffffffffffffffffffffffffffffffffffffffff16021790555033600160006101000a81548173ffffffffffffffffffffffffffffffffffffffff021916908373ffffffffffffffffffffffffffffffffffffffff160217905550506200015b565b600080fd5b600073ffffffffffffffffffffffffffffffffffffffff82169050919050565b6000620000f182620000c4565b9050919050565b6200010381620000e4565b81146200010f57600080fd5b50565b6000815190506200012381620000f8565b92915050565b600060208284031215620001425762000141620000bf565b5b6000620001528482850162000112565b91505092915050565b611aac806200016b6000396000f3fe608060405234801561001057600080fd5b50600436106100885760003560e01c80636f9fb98a1161005b5780636f9fb98a146101135780638da5cb5b146101315780639d76ea581461014f578063c9d3cc6a1461016d57610088565b806312065fe01461008d57806319289287146100ab5780634d813120146100c75780636f77926b146100e3575b600080fd5b610095610189565b6040516100a29190610efb565b60405180910390f35b6100c560048036038101906100c09190611070565b6101d0565b005b6100e160048036038101906100dc9190611146565b6105cf565b005b6100fd60048036038101906100f89190611146565b6107d1565b60405161010a91906112a8565b60405180910390f35b61011b6109c9565b6040516101289190610efb565b60405180910390f35b610139610a6b565b60405161014691906112d9565b60405180910390f35b610157610a91565b6040516101649190611353565b60405180910390f35b61018760048036038101906101829190611070565b610ab5565b005b6000600460003373ffffffffffffffffffffffffffffffffffffffff1673ffffffffffffffffffffffffffffffffffffffff16815260200190815260200160002054905090565b600073ffffffffffffffffffffffffffffffffffffffff16600260003373ffffffffffffffffffffffffffffffffffffffff1673ffffffffffffffffffffffffffffffffffffffff16815260200190815260200160002060000160009054906101000a900473ffffffffffffffffffffffffffffffffffffffff1673ffffffffffffffffffffffffffffffffffffffff16146102a1576040517f08c379a0000000000000000000000000000000000000000000000000000000008152600401610298906113cb565b60405180910390fd5b600073ffffffffffffffffffffffffffffffffffffffff166003836040516102c99190611427565b908152602001604051809103902060009054906101000a900473ffffffffffffffffffffffffffffffffffffffff1673ffffffffffffffffffffffffffffffffffffffff161461034e576040517f08c379a00000000000000000000000000000000000000000000000000000000081526004016103459061148a565b60405180910390fd5b6040518060a001604052803373ffffffffffffffffffffffffffffffffffffffff1681526020018381526020018281526020016000151581526020016000815250600260003373ffffffffffffffffffffffffffffffffffffffff1673ffffffffffffffffffffffffffffffffffffffff16815260200190815260200160002060008201518160000160006101000a81548173ffffffffffffffffffffffffffffffffffffffff021916908373ffffffffffffffffffffffffffffffffffffffff160217905550602082015181600101908161042a91906116ac565b50604082015181600201908161044091906116ac565b5060608201518160030160006101000a81548160ff021916908315150217905550608082015181600401559050503360038360405161047f9190611427565b908152602001604051809103902060006101000a81548173ffffffffffffffffffffffffffffffffffffffff021916908373ffffffffffffffffffffffffffffffffffffffff160217905550816040516104d99190611427565b60405180910390203373ffffffffffffffffffffffffffffffffffffffff167f9954bce02f72fbdef0fa668ac6f42e434b5829615dac2fb22448054d2359d4f660405160405180910390a360008054906101000a900473ffffffffffffffffffffffffffffffffffffffff1673ffffffffffffffffffffffffffffffffffffffff1663a9059cbb33678ac7230489e800006040518363ffffffff1660e01b81526004016105879291906117b9565b6020604051808303816000875af11580156105a6573d6000803e3d6000fd5b505050506040513d601f19601f820116820180604052508101906105ca919061180e565b505050565b3373ffffffffffffffffffffffffffffffffffffffff16600160009054906101000a900473ffffffffffffffffffffffffffffffffffffffff1673ffffffffffffffffffffffffffffffffffffffff161461065f576040517f08c379a000000000000000000000000000000000000000000000000000000000815260040161065690611887565b60405180910390fd5b600073ffffffffffffffffffffffffffffffffffffffff16600260008373ffffffffffffffffffffffffffffffffffffffff1673ffffffffffffffffffffffffffffffffffffffff16815260200190815260200160002060000160009054906101000a900473ffffffffffffffffffffffffffffffffffffffff1673ffffffffffffffffffffffffffffffffffffffff1603610730576040517f08c379a0000000000000000000000000000000000000000000000000000000008152600401610727906118f3565b60405180910390fd5b6001600260008373ffffffffffffffffffffffffffffffffffffffff1673ffffffffffffffffffffffffffffffffffffffff16815260200190815260200160002060030160006101000a81548160ff0219169083151502179055508073ffffffffffffffffffffffffffffffffffffffff167fa6625d2d26e786e2f473111bea4b2fcdbbf1863d883a2359989ce3a103d2972a60405160405180910390a250565b6107d9610e9b565b600260008373ffffffffffffffffffffffffffffffffffffffff1673ffffffffffffffffffffffffffffffffffffffff1681526020019081526020016000206040518060a00160405290816000820160009054906101000a900473ffffffffffffffffffffffffffffffffffffffff1673ffffffffffffffffffffffffffffffffffffffff1673ffffffffffffffffffffffffffffffffffffffff168152602001600182018054610889906114d9565b80601f01602080910402602001604051908101604052809291908181526020018280546108b5906114d9565b80156109025780601f106108d757610100808354040283529160200191610902565b820191906000526020600020905b8154815290600101906020018083116108e557829003601f168201915b5050505050815260200160028201805461091b906114d9565b80601f0160208091040260200160405190810160405280929190818152602001828054610947906114d9565b80156109945780601f1061096957610100808354040283529160200191610994565b820191906000526020600020905b81548152906001019060200180831161097757829003601f168201915b505050505081526020016003820160009054906101000a900460ff161515151581526020016004820154815250509050919050565b60008060009054906101000a900473ffffffffffffffffffffffffffffffffffffffff1673ffffffffffffffffffffffffffffffffffffffff166370a08231306040518263ffffffff1660e01b8152600401610a2591906112d9565b602060405180830381865afa158015610a42573d6000803e3d6000fd5b505050506040513d601f19601f82011682018060405250810190610a66919061193f565b905090565b600160009054906101000a900473ffffffffffffffffffffffffffffffffffffffff1681565b60008054906101000a900473ffffffffffffffffffffffffffffffffffffffff1681565b600073ffffffffffffffffffffffffffffffffffffffff16600260003373ffffffffffffffffffffffffffffffffffffffff1673ffffffffffffffffffffffffffffffffffffffff16815260200190815260200160002060000160009054906101000a900473ffffffffffffffffffffffffffffffffffffffff1673ffffffffffffffffffffffffffffffffffffffff1603610b86576040517f08c379a0000000000000000000000000000000000000000000000000000000008152600401610b7d906118f3565b60405180910390fd5b81604051602001610b979190611427565b60405160208183030381529060405280519060200120600260003373ffffffffffffffffffffffffffffffffffffffff1673ffffffffffffffffffffffffffffffffffffffff168152602001908152602001600020600101604051602001610bff91906119ef565b6040516020818303038152906040528051906020012014610da757600073ffffffffffffffffffffffffffffffffffffffff16600383604051610c429190611427565b908152602001604051809103902060009054906101000a900473ffffffffffffffffffffffffffffffffffffffff1673ffffffffffffffffffffffffffffffffffffffff1614610cc7576040517f08c379a0000000000000000000000000000000000000000000000000000000008152600401610cbe9061148a565b60405180910390fd5b6003600260003373ffffffffffffffffffffffffffffffffffffffff1673ffffffffffffffffffffffffffffffffffffffff168152602001908152602001600020600101604051610d1891906119ef565b908152602001604051809103902060006101000a81549073ffffffffffffffffffffffffffffffffffffffff021916905533600383604051610d5a9190611427565b908152602001604051809103902060006101000a81548173ffffffffffffffffffffffffffffffffffffffff021916908373ffffffffffffffffffffffffffffffffffffffff1602179055505b81600260003373ffffffffffffffffffffffffffffffffffffffff1673ffffffffffffffffffffffffffffffffffffffff1681526020019081526020016000206001019081610df691906116ac565b5080600260003373ffffffffffffffffffffffffffffffffffffffff1673ffffffffffffffffffffffffffffffffffffffff1681526020019081526020016000206002019081610e4691906116ac565b503373ffffffffffffffffffffffffffffffffffffffff167f6eb3a1c6a4675ba92d44e090515b1ceea358f26565d2854df0c99c3f5eaf98508383604051610e8f929190611a3f565b60405180910390a25050565b6040518060a00160405280600073ffffffffffffffffffffffffffffffffffffffff1681526020016060815260200160608152602001600015158152602001600081525090565b6000819050919050565b610ef581610ee2565b82525050565b6000602082019050610f106000830184610eec565b92915050565b6000604051905090565b600080fd5b600080fd5b600080fd5b600080fd5b6000601f19601f8301169050919050565b7f4e487b7100000000000000000000000000000000000000000000000000000000600052604160045260246000fd5b610f7d82610f34565b810181811067ffffffffffffffff82111715610f9c57610f9b610f45565b5b80604052505050565b6000610faf610f16565b9050610fbb8282610f74565b919050565b600067ffffffffffffffff821115610fdb57610fda610f45565b5b610fe482610f34565b9050602081019050919050565b82818337600083830152505050565b600061101361100e84610fc0565b610fa5565b90508281526020810184848401111561102f5761102e610f2f565b5b61103a848285610ff1565b509392505050565b600082601f83011261105757611056610f2a565b5b8135611067848260208601611000565b91505092915050565b6000806040838503121561108757611086610f20565b5b600083013567ffffffffffffffff8111156110a5576110a4610f25565b5b6110b185828601611042565b925050602083013567ffffffffffffffff8111156110d2576110d1610f25565b5b6110de85828601611042565b9150509250929050565b600073ffffffffffffffffffffffffffffffffffffffff82169050919050565b6000611113826110e8565b9050919050565b61112381611108565b811461112e57600080fd5b50565b6000813590506111408161111a565b92915050565b60006020828403121561115c5761115b610f20565b5b600061116a84828501611131565b91505092915050565b61117c81611108565b82525050565b600081519050919050565b600082825260208201905092915050565b60005b838110156111bc5780820151818401526020810190506111a1565b60008484015250505050565b60006111d382611182565b6111dd818561118d565b93506111ed81856020860161119e565b6111f681610f34565b840191505092915050565b60008115159050919050565b61121681611201565b82525050565b61122581610ee2565b82525050565b600060a0830160008301516112436000860182611173565b506020830151848203602086015261125b82826111c8565b9150506040830151848203604086015261127582826111c8565b915050606083015161128a606086018261120d565b50608083015161129d608086018261121c565b508091505092915050565b600060208201905081810360008301526112c2818461122b565b905092915050565b6112d381611108565b82525050565b60006020820190506112ee60008301846112ca565b92915050565b6000819050919050565b600061131961131461130f846110e8565b6112f4565b6110e8565b9050919050565b600061132b826112fe565b9050919050565b600061133d82611320565b9050919050565b61134d81611332565b82525050565b60006020820190506113686000830184611344565b92915050565b600082825260208201905092915050565b7f5573657220616c72656164792065786973747300000000000000000000000000600082015250565b60006113b560138361136e565b91506113c08261137f565b602082019050919050565b600060208201905081810360008301526113e4816113a8565b9050919050565b600081905092915050565b600061140182611182565b61140b81856113eb565b935061141b81856020860161119e565b80840191505092915050565b600061143382846113f6565b915081905092915050565b7f557365726e616d6520616c72656164792074616b656e00000000000000000000600082015250565b600061147460168361136e565b915061147f8261143e565b602082019050919050565b600060208201905081810360008301526114a381611467565b9050919050565b7f4e487b7100000000000000000000000000000000000000000000000000000000600052602260045260246000fd5b600060028204905060018216806114f157607f821691505b602082108103611504576115036114aa565b5b50919050565b60008190508160005260206000209050919050565b60006020601f8301049050919050565b600082821b905092915050565b60006008830261156c7fffffffffffffffffffffffffffffffffffffffffffffffffffffffffffffffff8261152f565b611576868361152f565b95508019841693508086168417925050509392505050565b60006115a96115a461159f84610ee2565b6112f4565b610ee2565b9050919050565b6000819050919050565b6115c38361158e565b6115d76115cf826115b0565b84845461153c565b825550505050565b600090565b6115ec6115df565b6115f78184846115ba565b505050565b5b8181101561161b576116106000826115e4565b6001810190506115fd565b5050565b601f821115611660576116318161150a565b61163a8461151f565b81016020851015611649578190505b61165d6116558561151f565b8301826115fc565b50505b505050565b600082821c905092915050565b600061168360001984600802611665565b1980831691505092915050565b600061169c8383611672565b9150826002028217905092915050565b6116b582611182565b67ffffffffffffffff8111156116ce576116cd610f45565b5b6116d882546114d9565b6116e382828561161f565b600060209050601f8311600181146117165760008415611704578287015190505b61170e8582611690565b865550611776565b601f1984166117248661150a565b60005b8281101561174c57848901518255600182019150602085019450602081019050611727565b868310156117695784890151611765601f891682611672565b8355505b6001600288020188555050505b505050505050565b6000819050919050565b60006117a361179e6117998461177e565b6112f4565b610ee2565b9050919050565b6117b381611788565b82525050565b60006040820190506117ce60008301856112ca565b6117db60208301846117aa565b9392505050565b6117eb81611201565b81146117f657600080fd5b50565b600081519050611808816117e2565b92915050565b60006020828403121561182457611823610f20565b5b6000611832848285016117f9565b91505092915050565b7f594f5520415245204e4f5420544845204f574e45520000000000000000000000600082015250565b600061187160158361136e565b915061187c8261183b565b602082019050919050565b600060208201905081810360008301526118a081611864565b9050919050565b7f5573657220646f6573206e6f7420657869737400000000000000000000000000600082015250565b60006118dd60138361136e565b91506118e8826118a7565b602082019050919050565b6000602082019050818103600083015261190c816118d0565b9050919050565b61191c81610ee2565b811461192757600080fd5b50565b60008151905061193981611913565b92915050565b60006020828403121561195557611954610f20565b5b60006119638482850161192a565b91505092915050565b60008154611979816114d9565b61198381866113eb565b9450600182166000811461199e57600181146119b3576119e6565b60ff19831686528115158202860193506119e6565b6119bc8561150a565b60005b838110156119de578154818901526001820191506020810190506119bf565b838801955050505b50505092915050565b60006119fb828461196c565b915081905092915050565b6000611a1182611182565b611a1b818561136e565b9350611a2b81856020860161119e565b611a3481610f34565b840191505092915050565b60006040820190508181036000830152611a598185611a06565b90508181036020830152611a6d8184611a06565b9050939250505056fea264697066735822122052a71b27a865c6d0a7e01ee77fa1e47011f37fa2c1d1e3c2b12cc5336f79fd0464736f6c63430008180033",
  "linkReferences": {},
  "deployedLinkReferences": {}
}